{
  "contractName": "Auction",
  "abi": [
    {
      "inputs": [
        {
          "internalType": "string",
          "name": "_ipfsHash",
          "type": "string"
        },
        {
          "internalType": "uint256",
          "name": "_bidIncrement",
          "type": "uint256"
        },
        {
          "internalType": "uint256",
          "name": "_durationBlocks",
          "type": "uint256"
        }
      ],
      "stateMutability": "nonpayable",
      "type": "constructor"
    },
    {
      "inputs": [],
      "name": "auctionState",
      "outputs": [
        {
          "internalType": "enum Auction.State",
          "name": "",
          "type": "uint8"
        }
      ],
      "stateMutability": "view",
      "type": "function"
    },
    {
      "inputs": [],
      "name": "bidIncrement",
      "outputs": [
        {
          "internalType": "uint256",
          "name": "",
          "type": "uint256"
        }
      ],
      "stateMutability": "view",
      "type": "function"
    },
    {
      "inputs": [
        {
          "internalType": "address",
          "name": "",
          "type": "address"
        }
      ],
      "name": "bids",
      "outputs": [
        {
          "internalType": "uint256",
          "name": "",
          "type": "uint256"
        }
      ],
      "stateMutability": "view",
      "type": "function"
    },
    {
      "inputs": [],
      "name": "endBlock",
      "outputs": [
        {
          "internalType": "uint256",
          "name": "",
          "type": "uint256"
        }
      ],
      "stateMutability": "view",
      "type": "function"
    },
    {
      "inputs": [],
      "name": "highestBidder",
      "outputs": [
        {
          "internalType": "address payable",
          "name": "",
          "type": "address"
        }
      ],
      "stateMutability": "view",
      "type": "function"
    },
    {
      "inputs": [],
      "name": "highestBindingBid",
      "outputs": [
        {
          "internalType": "uint256",
          "name": "",
          "type": "uint256"
        }
      ],
      "stateMutability": "view",
      "type": "function"
    },
    {
      "inputs": [],
      "name": "ipfsHash",
      "outputs": [
        {
          "internalType": "string",
          "name": "",
          "type": "string"
        }
      ],
      "stateMutability": "view",
      "type": "function"
    },
    {
      "inputs": [],
      "name": "owner",
      "outputs": [
        {
          "internalType": "address payable",
          "name": "",
          "type": "address"
        }
      ],
      "stateMutability": "view",
      "type": "function"
    },
    {
      "inputs": [],
      "name": "startBlock",
      "outputs": [
        {
          "internalType": "uint256",
          "name": "",
          "type": "uint256"
        }
      ],
      "stateMutability": "view",
      "type": "function"
    },
    {
      "inputs": [],
      "name": "cancelAuction",
      "outputs": [],
      "stateMutability": "nonpayable",
      "type": "function"
    },
    {
      "inputs": [],
      "name": "placeBid",
      "outputs": [],
      "stateMutability": "payable",
      "type": "function"
    },
    {
      "inputs": [],
      "name": "finalizeAuction",
      "outputs": [],
      "stateMutability": "nonpayable",
      "type": "function"
    }
  ],
  "bytecode": "0x60806040523480156200001157600080fd5b5060405162001ac638038062001ac6833981810160405281019062000037919062000248565b336000806101000a81548173ffffffffffffffffffffffffffffffffffffffff021916908373ffffffffffffffffffffffffffffffffffffffff1602179055506001600460006101000a81548160ff02191690836003811115620000c4577f4e487b7100000000000000000000000000000000000000000000000000000000600052602160045260246000fd5b02179055504360018190555080600154620000e091906200031e565b6002819055508260039080519060200190620000fe9291906200010f565b508160088190555050505062000498565b8280546200011d90620003bb565b90600052602060002090601f0160209004810192826200014157600085556200018d565b82601f106200015c57805160ff19168380011785556200018d565b828001600101855582156200018d579182015b828111156200018c5782518255916020019190600101906200016f565b5b5090506200019c9190620001a0565b5090565b5b80821115620001bb576000816000905550600101620001a1565b5090565b6000620001d6620001d084620002eb565b620002b7565b905082815260208101848484011115620001ef57600080fd5b620001fc84828562000385565b509392505050565b600082601f8301126200021657600080fd5b815162000228848260208601620001bf565b91505092915050565b60008151905062000242816200047e565b92915050565b6000806000606084860312156200025e57600080fd5b600084015167ffffffffffffffff8111156200027957600080fd5b620002878682870162000204565b93505060206200029a8682870162000231565b9250506040620002ad8682870162000231565b9150509250925092565b6000604051905081810181811067ffffffffffffffff82111715620002e157620002e06200044f565b5b8060405250919050565b600067ffffffffffffffff8211156200030957620003086200044f565b5b601f19601f8301169050602081019050919050565b60006200032b826200037b565b915062000338836200037b565b9250827fffffffffffffffffffffffffffffffffffffffffffffffffffffffffffffffff0382111562000370576200036f620003f1565b5b828201905092915050565b6000819050919050565b60005b83811015620003a557808201518184015260208101905062000388565b83811115620003b5576000848401525b50505050565b60006002820490506001821680620003d457607f821691505b60208210811415620003eb57620003ea62000420565b5b50919050565b7f4e487b7100000000000000000000000000000000000000000000000000000000600052601160045260246000fd5b7f4e487b7100000000000000000000000000000000000000000000000000000000600052602260045260246000fd5b7f4e487b7100000000000000000000000000000000000000000000000000000000600052604160045260246000fd5b62000489816200037b565b81146200049557600080fd5b50565b61161e80620004a86000396000f3fe6080604052600436106100a75760003560e01c806391f901571161006457806391f90157146101ac578063b3cc167a146101d7578063c623674f14610202578063ecfc7ecc1461022d578063f5b56c5614610237578063f77282ab14610262576100a7565b8063083c6323146100ac57806348cd4cb1146100d757806362ea82db146101025780637fb450991461013f5780638da5cb5b1461016a5780638fa8b79014610195575b600080fd5b3480156100b857600080fd5b506100c1610279565b6040516100ce919061137b565b60405180910390f35b3480156100e357600080fd5b506100ec61027f565b6040516100f9919061137b565b60405180910390f35b34801561010e57600080fd5b5061012960048036038101906101249190610e7f565b610285565b604051610136919061137b565b60405180910390f35b34801561014b57600080fd5b5061015461029d565b60405161016191906111fe565b60405180910390f35b34801561017657600080fd5b5061017f6102b0565b60405161018c91906111e3565b60405180910390f35b3480156101a157600080fd5b506101aa6102d4565b005b3480156101b857600080fd5b506101c16103b5565b6040516101ce91906111e3565b60405180910390f35b3480156101e357600080fd5b506101ec6103db565b6040516101f9919061137b565b60405180910390f35b34801561020e57600080fd5b506102176103e1565b6040516102249190611219565b60405180910390f35b61023561046f565b005b34801561024357600080fd5b5061024c610921565b604051610259919061137b565b60405180910390f35b34801561026e57600080fd5b50610277610927565b005b60025481565b60015481565b60076020528060005260406000206000915090505481565b600460009054906101000a900460ff1681565b60008054906101000a900473ffffffffffffffffffffffffffffffffffffffff1681565b60008054906101000a900473ffffffffffffffffffffffffffffffffffffffff1673ffffffffffffffffffffffffffffffffffffffff163373ffffffffffffffffffffffffffffffffffffffff1614610362576040517f08c379a00000000000000000000000000000000000000000000000000000000081526004016103599061125b565b60405180910390fd5b6003600460006101000a81548160ff021916908360038111156103ae577f4e487b7100000000000000000000000000000000000000000000000000000000600052602160045260246000fd5b0217905550565b600660009054906101000a900473ffffffffffffffffffffffffffffffffffffffff1681565b60085481565b600380546103ee906114ed565b80601f016020809104026020016040519081016040528092919081815260200182805461041a906114ed565b80156104675780601f1061043c57610100808354040283529160200191610467565b820191906000526020600020905b81548152906001019060200180831161044a57829003601f168201915b505050505081565b60008054906101000a900473ffffffffffffffffffffffffffffffffffffffff1673ffffffffffffffffffffffffffffffffffffffff163373ffffffffffffffffffffffffffffffffffffffff1614156104fe576040517f08c379a00000000000000000000000000000000000000000000000000000000081526004016104f59061131b565b60405180910390fd5b600154431015610543576040517f08c379a000000000000000000000000000000000000000000000000000000000815260040161053a9061135b565b60405180910390fd5b600254431115610588576040517f08c379a000000000000000000000000000000000000000000000000000000000815260040161057f906112bb565b60405180910390fd5b600160038111156105c2577f4e487b7100000000000000000000000000000000000000000000000000000000600052602160045260246000fd5b600460009054906101000a900460ff16600381111561060a577f4e487b7100000000000000000000000000000000000000000000000000000000600052602160045260246000fd5b1461064a576040517f08c379a0000000000000000000000000000000000000000000000000000000008152600401610641906112db565b60405180910390fd5b606434101561068e576040517f08c379a00000000000000000000000000000000000000000000000000000000081526004016106859061129b565b60405180910390fd5b600034600760003373ffffffffffffffffffffffffffffffffffffffff1673ffffffffffffffffffffffffffffffffffffffff168152602001908152602001600020546106db91906113bd565b90506008546005546106ed91906113bd565b81101561072f576040517f08c379a00000000000000000000000000000000000000000000000000000000081526004016107269061133b565b60405180910390fd5b80600760003373ffffffffffffffffffffffffffffffffffffffff1673ffffffffffffffffffffffffffffffffffffffff1681526020019081526020016000208190555060076000600660009054906101000a900473ffffffffffffffffffffffffffffffffffffffff1673ffffffffffffffffffffffffffffffffffffffff1673ffffffffffffffffffffffffffffffffffffffff16815260200190815260200160002054811161085e57610853600854826107ec91906113bd565b60076000600660009054906101000a900473ffffffffffffffffffffffffffffffffffffffff1673ffffffffffffffffffffffffffffffffffffffff1673ffffffffffffffffffffffffffffffffffffffff16815260200190815260200160002054610e50565b60058190555061091e565b6108d68160085460076000600660009054906101000a900473ffffffffffffffffffffffffffffffffffffffff1673ffffffffffffffffffffffffffffffffffffffff1673ffffffffffffffffffffffffffffffffffffffff168152602001908152602001600020546108d191906113bd565b610e50565b60058190555033600660006101000a81548173ffffffffffffffffffffffffffffffffffffffff021916908373ffffffffffffffffffffffffffffffffffffffff1602179055505b50565b60055481565b600380811115610960577f4e487b7100000000000000000000000000000000000000000000000000000000600052602160045260246000fd5b600460009054906101000a900460ff1660038111156109a8577f4e487b7100000000000000000000000000000000000000000000000000000000600052602160045260246000fd5b14806109b5575060025443115b6109f4576040517f08c379a00000000000000000000000000000000000000000000000000000000081526004016109eb906112fb565b60405180910390fd5b60008054906101000a900473ffffffffffffffffffffffffffffffffffffffff1673ffffffffffffffffffffffffffffffffffffffff163373ffffffffffffffffffffffffffffffffffffffff161480610a8d57506000600760003373ffffffffffffffffffffffffffffffffffffffff1673ffffffffffffffffffffffffffffffffffffffff16815260200190815260200160002054115b610acc576040517f08c379a0000000000000000000000000000000000000000000000000000000008152600401610ac39061123b565b60405180910390fd5b600080600380811115610b08577f4e487b7100000000000000000000000000000000000000000000000000000000600052602160045260246000fd5b600460009054906101000a900460ff166003811115610b50577f4e487b7100000000000000000000000000000000000000000000000000000000600052602160045260246000fd5b1415610ba057339150600760003373ffffffffffffffffffffffffffffffffffffffff1673ffffffffffffffffffffffffffffffffffffffff168152602001908152602001600020549050610d5a565b60008054906101000a900473ffffffffffffffffffffffffffffffffffffffff1673ffffffffffffffffffffffffffffffffffffffff163373ffffffffffffffffffffffffffffffffffffffff161415610c215760008054906101000a900473ffffffffffffffffffffffffffffffffffffffff1691506005549050610d59565b600660009054906101000a900473ffffffffffffffffffffffffffffffffffffffff1673ffffffffffffffffffffffffffffffffffffffff163373ffffffffffffffffffffffffffffffffffffffff161415610d1257600660009054906101000a900473ffffffffffffffffffffffffffffffffffffffff16915060055460076000600660009054906101000a900473ffffffffffffffffffffffffffffffffffffffff1673ffffffffffffffffffffffffffffffffffffffff1673ffffffffffffffffffffffffffffffffffffffff16815260200190815260200160002054610d0b9190611413565b9050610d58565b339150600760003373ffffffffffffffffffffffffffffffffffffffff1673ffffffffffffffffffffffffffffffffffffffff1681526020019081526020016000205490505b5b5b6000600760008473ffffffffffffffffffffffffffffffffffffffff1673ffffffffffffffffffffffffffffffffffffffff1681526020019081526020016000208190555060008273ffffffffffffffffffffffffffffffffffffffff1682604051610dc5906111ce565b60006040518083038185875af1925050503d8060008114610e02576040519150601f19603f3d011682016040523d82523d6000602084013e610e07565b606091505b5050905080610e4b576040517f08c379a0000000000000000000000000000000000000000000000000000000008152600401610e429061127b565b60405180910390fd5b505050565b600081831115610e605781610e62565b825b905092915050565b600081359050610e79816115d1565b92915050565b600060208284031215610e9157600080fd5b6000610e9f84828501610e6a565b91505092915050565b610eb181611459565b82525050565b610ec0816114a8565b82525050565b6000610ed182611396565b610edb81856113ac565b9350610eeb8185602086016114ba565b610ef4816115ac565b840191505092915050565b6000610f0c6011836113ac565b91507f4e6f742061207061727469636970616e740000000000000000000000000000006000830152602082019050919050565b6000610f4c6021836113ac565b91507f4f6e6c79206f776e65722063616e2063616c6c20746869732066756e6374696f60008301527f6e000000000000000000000000000000000000000000000000000000000000006020830152604082019050919050565b6000610fb2600f836113ac565b91507f5472616e73666572206661696c656400000000000000000000000000000000006000830152602082019050919050565b6000610ff26016836113ac565b91507f4d696e696d756d206269642069732031303020776569000000000000000000006000830152602082019050919050565b60006110326015836113ac565b91507f41756374696f6e20616c726561647920656e64656400000000000000000000006000830152602082019050919050565b60006110726013836113ac565b91507f41756374696f6e206e6f742072756e6e696e67000000000000000000000000006000830152602082019050919050565b60006110b26019836113ac565b91507f41756374696f6e206e6f74207965742066696e616c697a6564000000000000006000830152602082019050919050565b60006110f26010836113ac565b91507f4f776e65722063616e6e6f7420626964000000000000000000000000000000006000830152602082019050919050565b60006111326000836113a1565b9150600082019050919050565b600061114c6015836113ac565b91507f42696420696e6372656d656e7420746f6f206c6f7700000000000000000000006000830152602082019050919050565b600061118c6017836113ac565b91507f41756374696f6e206e6f742073746172746564207965740000000000000000006000830152602082019050919050565b6111c88161149e565b82525050565b60006111d982611125565b9150819050919050565b60006020820190506111f86000830184610ea8565b92915050565b60006020820190506112136000830184610eb7565b92915050565b600060208201905081810360008301526112338184610ec6565b905092915050565b6000602082019050818103600083015261125481610eff565b9050919050565b6000602082019050818103600083015261127481610f3f565b9050919050565b6000602082019050818103600083015261129481610fa5565b9050919050565b600060208201905081810360008301526112b481610fe5565b9050919050565b600060208201905081810360008301526112d481611025565b9050919050565b600060208201905081810360008301526112f481611065565b9050919050565b60006020820190508181036000830152611314816110a5565b9050919050565b60006020820190508181036000830152611334816110e5565b9050919050565b600060208201905081810360008301526113548161113f565b9050919050565b600060208201905081810360008301526113748161117f565b9050919050565b600060208201905061139060008301846111bf565b92915050565b600081519050919050565b600081905092915050565b600082825260208201905092915050565b60006113c88261149e565b91506113d38361149e565b9250827fffffffffffffffffffffffffffffffffffffffffffffffffffffffffffffffff038211156114085761140761151f565b5b828201905092915050565b600061141e8261149e565b91506114298361149e565b92508282101561143c5761143b61151f565b5b828203905092915050565b60006114528261147e565b9050919050565b60006114648261147e565b9050919050565b6000819050611479826115bd565b919050565b600073ffffffffffffffffffffffffffffffffffffffff82169050919050565b6000819050919050565b60006114b38261146b565b9050919050565b60005b838110156114d85780820151818401526020810190506114bd565b838111156114e7576000848401525b50505050565b6000600282049050600182168061150557607f821691505b602082108114156115195761151861157d565b5b50919050565b7f4e487b7100000000000000000000000000000000000000000000000000000000600052601160045260246000fd5b7f4e487b7100000000000000000000000000000000000000000000000000000000600052602160045260246000fd5b7f4e487b7100000000000000000000000000000000000000000000000000000000600052602260045260246000fd5b6000601f19601f8301169050919050565b600481106115ce576115cd61154e565b5b50565b6115da81611447565b81146115e557600080fd5b5056fea2646970667358221220850018cbd9fad7788a00eddaf51544d078196948d28b0a1bbf5739059423590064736f6c63430008000033",
  "immutableReferences": {},
  "source": "// SPDX-License-Identifier: GPL-3.0\r\n\r\npragma solidity ^0.8.0;\r\n\r\ncontract Auction {\r\n    address payable public owner;\r\n    uint public startBlock;\r\n    uint public endBlock;\r\n    string public ipfsHash;\r\n\r\n    enum State {Started, Running, Ended, Canceled}\r\n    State public auctionState;\r\n\r\n    uint public highestBindingBid;\r\n    address payable public highestBidder;\r\n\r\n    mapping(address => uint) public bids;\r\n\r\n    uint public bidIncrement;\r\n\r\n    constructor(string memory _ipfsHash, uint _bidIncrement, uint _durationBlocks) {\r\n        owner = payable(msg.sender);\r\n        auctionState = State.Running;\r\n        startBlock = block.number;\r\n        endBlock = startBlock + _durationBlocks;\r\n        ipfsHash = _ipfsHash;\r\n        bidIncrement = _bidIncrement;\r\n    }\r\n\r\n    modifier notOwner() {\r\n        require(msg.sender != owner, \"Owner cannot bid\");\r\n        _;\r\n    }\r\n\r\n    modifier afterStart() {\r\n        require(block.number >= startBlock, \"Auction not started yet\");\r\n        _;\r\n    }\r\n\r\n    modifier beforeEnd() {\r\n        require(block.number <= endBlock, \"Auction already ended\");\r\n        _;\r\n    }\r\n\r\n    modifier onlyOwner() {\r\n        require(msg.sender == owner, \"Only owner can call this function\");\r\n        _;\r\n    }\r\n\r\n    function min(uint a, uint b) pure internal returns (uint) {\r\n        return a <= b ? a : b;\r\n    }\r\n\r\n    function cancelAuction() public onlyOwner {\r\n        auctionState = State.Canceled;\r\n    }\r\n\r\n    function placeBid() public payable notOwner afterStart beforeEnd {\r\n        require(auctionState == State.Running, \"Auction not running\");\r\n        require(msg.value >= 100, \"Minimum bid is 100 wei\");\r\n\r\n        uint currentBid = bids[msg.sender] + msg.value;\r\n        require(currentBid >= highestBindingBid + bidIncrement, \"Bid increment too low\");\r\n\r\n        bids[msg.sender] = currentBid;\r\n\r\n        if (currentBid <= bids[highestBidder]) {\r\n            highestBindingBid = min(currentBid + bidIncrement, bids[highestBidder]);\r\n        } else {\r\n            highestBindingBid = min(currentBid, bids[highestBidder] + bidIncrement);\r\n            highestBidder = payable(msg.sender);\r\n        }\r\n    }\r\n\r\n    function finalizeAuction() public {\r\n        require(auctionState == State.Canceled || block.number > endBlock, \"Auction not yet finalized\");\r\n        require(msg.sender == owner || bids[msg.sender] > 0, \"Not a participant\");\r\n\r\n        address payable recipient;\r\n        uint value;\r\n\r\n        if (auctionState == State.Canceled) {\r\n            recipient = payable(msg.sender);\r\n            value = bids[msg.sender];\r\n        } else {\r\n            if (msg.sender == owner) {\r\n                recipient = owner;\r\n                value = highestBindingBid;\r\n            } else if (msg.sender == highestBidder) {\r\n                recipient = highestBidder;\r\n                value = bids[highestBidder] - highestBindingBid;\r\n            } else {\r\n                recipient = payable(msg.sender);\r\n                value = bids[msg.sender];\r\n            }\r\n        }\r\n\r\n        bids[recipient] = 0;\r\n        (bool success, ) = recipient.call{value: value}(\"\");\r\n        require(success, \"Transfer failed\");\r\n    }\r\n}\r\n",
  "sourcePath": "C:\\2KURSAS\\blockchain\\AukcionoProjektas\\contracts\\aukcionas.sol",
  "compiler": {
    "name": "solc",
    "version": "0.8.0+commit.c7dfd78e.Emscripten.clang"
  },
  "schemaVersion": "3.4.16",
  "updatedAt": "2024-12-11T19:34:57.027Z",
  "devdoc": {
    "kind": "dev",
    "methods": {},
    "version": 1
  },
  "userdoc": {
    "kind": "user",
    "methods": {},
    "version": 1
  }
}