{
  "contractName": "MultiItemAuction",
  "abi": [
    {
      "inputs": [
        {
          "internalType": "uint256",
          "name": "_bidIncrement",
          "type": "uint256"
        }
      ],
      "stateMutability": "nonpayable",
      "type": "constructor"
    },
    {
      "anonymous": false,
      "inputs": [
        {
          "indexed": true,
          "internalType": "uint256",
          "name": "itemId",
          "type": "uint256"
        }
      ],
      "name": "AuctionCanceled",
      "type": "event"
    },
    {
      "anonymous": false,
      "inputs": [
        {
          "indexed": true,
          "internalType": "uint256",
          "name": "itemId",
          "type": "uint256"
        },
        {
          "indexed": true,
          "internalType": "address",
          "name": "recipient",
          "type": "address"
        },
        {
          "indexed": false,
          "internalType": "uint256",
          "name": "value",
          "type": "uint256"
        }
      ],
      "name": "AuctionFinalized",
      "type": "event"
    },
    {
      "anonymous": false,
      "inputs": [
        {
          "indexed": true,
          "internalType": "uint256",
          "name": "itemId",
          "type": "uint256"
        },
        {
          "indexed": false,
          "internalType": "uint256",
          "name": "startTime",
          "type": "uint256"
        },
        {
          "indexed": false,
          "internalType": "uint256",
          "name": "endTime",
          "type": "uint256"
        }
      ],
      "name": "AuctionStarted",
      "type": "event"
    },
    {
      "anonymous": false,
      "inputs": [
        {
          "indexed": true,
          "internalType": "uint256",
          "name": "itemId",
          "type": "uint256"
        },
        {
          "indexed": true,
          "internalType": "address",
          "name": "bidder",
          "type": "address"
        },
        {
          "indexed": false,
          "internalType": "uint256",
          "name": "bidAmount",
          "type": "uint256"
        }
      ],
      "name": "BidPlaced",
      "type": "event"
    },
    {
      "inputs": [],
      "name": "bidIncrement",
      "outputs": [
        {
          "internalType": "uint256",
          "name": "",
          "type": "uint256"
        }
      ],
      "stateMutability": "view",
      "type": "function",
      "constant": true
    },
    {
      "inputs": [
        {
          "internalType": "uint256",
          "name": "",
          "type": "uint256"
        }
      ],
      "name": "itemIds",
      "outputs": [
        {
          "internalType": "uint256",
          "name": "",
          "type": "uint256"
        }
      ],
      "stateMutability": "view",
      "type": "function",
      "constant": true
    },
    {
      "inputs": [],
      "name": "owner",
      "outputs": [
        {
          "internalType": "address payable",
          "name": "",
          "type": "address"
        }
      ],
      "stateMutability": "view",
      "type": "function",
      "constant": true
    },
    {
      "stateMutability": "payable",
      "type": "receive",
      "payable": true
    },
    {
      "inputs": [
        {
          "internalType": "uint256",
          "name": "itemId",
          "type": "uint256"
        }
      ],
      "name": "startAuction",
      "outputs": [],
      "stateMutability": "nonpayable",
      "type": "function"
    },
    {
      "inputs": [
        {
          "internalType": "uint256",
          "name": "itemId",
          "type": "uint256"
        }
      ],
      "name": "cancelAuction",
      "outputs": [],
      "stateMutability": "nonpayable",
      "type": "function"
    },
    {
      "inputs": [
        {
          "internalType": "uint256",
          "name": "itemId",
          "type": "uint256"
        }
      ],
      "name": "placeBid",
      "outputs": [],
      "stateMutability": "payable",
      "type": "function",
      "payable": true
    },
    {
      "inputs": [
        {
          "internalType": "uint256",
          "name": "itemId",
          "type": "uint256"
        }
      ],
      "name": "finalizeAuction",
      "outputs": [],
      "stateMutability": "nonpayable",
      "type": "function"
    },
    {
      "inputs": [
        {
          "internalType": "uint256",
          "name": "itemId",
          "type": "uint256"
        }
      ],
      "name": "getHighestBid",
      "outputs": [
        {
          "internalType": "uint256",
          "name": "",
          "type": "uint256"
        }
      ],
      "stateMutability": "view",
      "type": "function",
      "constant": true
    },
    {
      "inputs": [
        {
          "internalType": "uint256",
          "name": "itemId",
          "type": "uint256"
        }
      ],
      "name": "getAuctionState",
      "outputs": [
        {
          "internalType": "enum MultiItemAuction.State",
          "name": "",
          "type": "uint8"
        }
      ],
      "stateMutability": "view",
      "type": "function",
      "constant": true
    },
    {
      "inputs": [
        {
          "internalType": "uint256",
          "name": "itemId",
          "type": "uint256"
        },
        {
          "internalType": "address",
          "name": "bidder",
          "type": "address"
        }
      ],
      "name": "getBidAmount",
      "outputs": [
        {
          "internalType": "uint256",
          "name": "",
          "type": "uint256"
        }
      ],
      "stateMutability": "view",
      "type": "function",
      "constant": true
    },
    {
      "inputs": [],
      "name": "getAllAuctions",
      "outputs": [
        {
          "components": [
            {
              "internalType": "uint256",
              "name": "itemId",
              "type": "uint256"
            },
            {
              "internalType": "uint256",
              "name": "highestBid",
              "type": "uint256"
            },
            {
              "internalType": "address",
              "name": "highestBidder",
              "type": "address"
            },
            {
              "internalType": "enum MultiItemAuction.State",
              "name": "auctionState",
              "type": "uint8"
            },
            {
              "internalType": "uint256",
              "name": "startTime",
              "type": "uint256"
            },
            {
              "internalType": "uint256",
              "name": "endTime",
              "type": "uint256"
            }
          ],
          "internalType": "struct MultiItemAuction.AuctionDetails[]",
          "name": "",
          "type": "tuple[]"
        }
      ],
      "stateMutability": "view",
      "type": "function",
      "constant": true
    },
    {
      "inputs": [
        {
          "internalType": "uint256",
          "name": "itemId",
          "type": "uint256"
        }
      ],
      "name": "getBidHistory",
      "outputs": [
        {
          "components": [
            {
              "internalType": "address",
              "name": "bidder",
              "type": "address"
            },
            {
              "internalType": "uint256",
              "name": "amount",
              "type": "uint256"
            }
          ],
          "internalType": "struct MultiItemAuction.Bid[]",
          "name": "",
          "type": "tuple[]"
        }
      ],
      "stateMutability": "view",
      "type": "function",
      "constant": true
    }
  ],
  "bytecode": "0x60806040523480156200001157600080fd5b5060405162002db638038062002db6833981810160405281019062000037919062000254565b600081116200007d576040517f08c379a000000000000000000000000000000000000000000000000000000000815260040162000074906200032a565b60405180910390fd5b336000806101000a81548173ffffffffffffffffffffffffffffffffffffffff021916908373ffffffffffffffffffffffffffffffffffffffff160217905550806001819055506000600190505b600c8111620001245760038190806001815401808255809150506001900390600052602060002001600090919091909150556200010e816200012c60201b60201c565b80806200011b9062000389565b915050620000cb565b505062000420565b6000811180156200013e5750600c8111155b62000180576040517f08c379a000000000000000000000000000000000000000000000000000000000815260040162000177906200034c565b60405180910390fd5b60006002600083815260200190815260200160002090506000816000018190555060008160010160006101000a81548173ffffffffffffffffffffffffffffffffffffffff021916908373ffffffffffffffffffffffffffffffffffffffff16021790555060008160010160146101000a81548160ff0219169083600381111562000234577f4e487b7100000000000000000000000000000000000000000000000000000000600052602160045260246000fd5b02179055505050565b6000815190506200024e8162000406565b92915050565b6000602082840312156200026757600080fd5b600062000277848285016200023d565b91505092915050565b60006200028f602c836200036e565b91507f53746174796d6f207061646964696e696d61732074757269206275746920646960008301527f6465736e6973206e6569203000000000000000000000000000000000000000006020830152604082019050919050565b6000620002f76016836200036e565b91507f4e6574696e6b616d61732061756b63696f6e6f204944000000000000000000006000830152602082019050919050565b60006020820190508181036000830152620003458162000280565b9050919050565b600060208201905081810360008301526200036781620002e8565b9050919050565b600082825260208201905092915050565b6000819050919050565b600062000396826200037f565b91507fffffffffffffffffffffffffffffffffffffffffffffffffffffffffffffffff821415620003cc57620003cb620003d7565b5b600182019050919050565b7f4e487b7100000000000000000000000000000000000000000000000000000000600052601160045260246000fd5b62000411816200037f565b81146200041d57600080fd5b50565b61298680620004306000396000f3fe6080604052600436106100ab5760003560e01c8063b3cc167a11610064578063b3cc167a14610203578063b3dc00fe1461022e578063b47089b41461026b578063c0738dce146102a8578063cbd2bdfd146102e5578063e808386314610310576100eb565b8063065de74c146100f057806309881007146101195780638da5cb5b146101565780638f2886441461018157806396b5a755146101be5780639979ef45146101e7576100eb565b366100eb576040517f08c379a00000000000000000000000000000000000000000000000000000000081526004016100e290612518565b60405180910390fd5b600080fd5b3480156100fc57600080fd5b5061011760048036038101906101129190611cb6565b610339565b005b34801561012557600080fd5b50610140600480360381019061013b9190611cb6565b6105aa565b60405161014d919061247d565b60405180910390f35b34801561016257600080fd5b5061016b610626565b604051610178919061241e565b60405180910390f35b34801561018d57600080fd5b506101a860048036038101906101a39190611cb6565b61064a565b6040516101b59190612698565b60405180910390f35b3480156101ca57600080fd5b506101e560048036038101906101e09190611cb6565b6106b9565b005b61020160048036038101906101fc9190611cb6565b61093c565b005b34801561020f57600080fd5b50610218610fae565b6040516102259190612698565b60405180910390f35b34801561023a57600080fd5b5061025560048036038101906102509190611cb6565b610fb4565b6040516102629190612698565b60405180910390f35b34801561027757600080fd5b50610292600480360381019061028d9190611cdf565b610fd8565b60405161029f9190612698565b60405180910390f35b3480156102b457600080fd5b506102cf60048036038101906102ca9190611cb6565b611085565b6040516102dc919061245b565b60405180910390f35b3480156102f157600080fd5b506102fa6111aa565b6040516103079190612439565b60405180910390f35b34801561031c57600080fd5b5061033760048036038101906103329190611cb6565b6113fe565b005b60008054906101000a900473ffffffffffffffffffffffffffffffffffffffff1673ffffffffffffffffffffffffffffffffffffffff163373ffffffffffffffffffffffffffffffffffffffff16146103c7576040517f08c379a00000000000000000000000000000000000000000000000000000000081526004016103be90612678565b60405180910390fd5b6000811180156103d85750600c8111155b610417576040517f08c379a000000000000000000000000000000000000000000000000000000000815260040161040e906125d8565b60405180910390fd5b600060026000838152602001908152602001600020905060006003811115610468577f4e487b7100000000000000000000000000000000000000000000000000000000600052602160045260246000fd5b8160010160149054906101000a900460ff1660038111156104b2577f4e487b7100000000000000000000000000000000000000000000000000000000600052602160045260246000fd5b146104f2576040517f08c379a00000000000000000000000000000000000000000000000000000000081526004016104e990612498565b60405180910390fd5b60018160010160146101000a81548160ff02191690836003811115610540577f4e487b7100000000000000000000000000000000000000000000000000000000600052602160045260246000fd5b02179055504281600401819055506104b04261055c919061276a565b8160050181905550817f44c53be110c6aa83aa83cd02e351ed172359268272ee1b5d31c0fe48db35c6c78260040154836005015460405161059e9291906126b3565b60405180910390a25050565b600080821180156105bc5750600c8211155b6105fb576040517f08c379a00000000000000000000000000000000000000000000000000000000081526004016105f2906125d8565b60405180910390fd5b6002600083815260200190815260200160002060010160149054906101000a900460ff169050919050565b60008054906101000a900473ffffffffffffffffffffffffffffffffffffffff1681565b6000808211801561065c5750600c8211155b61069b576040517f08c379a0000000000000000000000000000000000000000000000000000000008152600401610692906125d8565b60405180910390fd5b60026000838152602001908152602001600020600001549050919050565b60008054906101000a900473ffffffffffffffffffffffffffffffffffffffff1673ffffffffffffffffffffffffffffffffffffffff163373ffffffffffffffffffffffffffffffffffffffff1614610747576040517f08c379a000000000000000000000000000000000000000000000000000000000815260040161073e90612678565b60405180910390fd5b6000811180156107585750600c8111155b610797576040517f08c379a000000000000000000000000000000000000000000000000000000000815260040161078e906125d8565b60405180910390fd5b6000600260008381526020019081526020016000209050600160038111156107e8577f4e487b7100000000000000000000000000000000000000000000000000000000600052602160045260246000fd5b8160010160149054906101000a900460ff166003811115610832577f4e487b7100000000000000000000000000000000000000000000000000000000600052602160045260246000fd5b14610872576040517f08c379a000000000000000000000000000000000000000000000000000000000815260040161086990612598565b60405180910390fd5b806005015442106108b8576040517f08c379a00000000000000000000000000000000000000000000000000000000081526004016108af90612618565b60405180910390fd5b60038160010160146101000a81548160ff02191690836003811115610906577f4e487b7100000000000000000000000000000000000000000000000000000000600052602160045260246000fd5b0217905550817f28601d865dccc9f113e15a7185c1b38c085d598c71250d3337916a428536d77160405160405180910390a25050565b60008054906101000a900473ffffffffffffffffffffffffffffffffffffffff1673ffffffffffffffffffffffffffffffffffffffff163373ffffffffffffffffffffffffffffffffffffffff1614156109cb576040517f08c379a00000000000000000000000000000000000000000000000000000000081526004016109c290612638565b60405180910390fd5b8060016003811115610a06577f4e487b7100000000000000000000000000000000000000000000000000000000600052602160045260246000fd5b6002600083815260200190815260200160002060010160149054906101000a900460ff166003811115610a62577f4e487b7100000000000000000000000000000000000000000000000000000000600052602160045260246000fd5b14610aa2576040517f08c379a0000000000000000000000000000000000000000000000000000000008152600401610a99906124b8565b60405180910390fd5b6002600082815260200190815260200160002060040154421015610afb576040517f08c379a0000000000000000000000000000000000000000000000000000000008152600401610af290612578565b60405180910390fd5b6002600082815260200190815260200160002060050154421115610b54576040517f08c379a0000000000000000000000000000000000000000000000000000000008152600401610b4b906125b8565b60405180910390fd5b600082118015610b655750600c8211155b610ba4576040517f08c379a0000000000000000000000000000000000000000000000000000000008152600401610b9b906125d8565b60405180910390fd5b600060026000848152602001908152602001600020905066038d7ea4c68000341015610c05576040517f08c379a0000000000000000000000000000000000000000000000000000000008152600401610bfc90612558565b60405180910390fd5b6000348260020160003373ffffffffffffffffffffffffffffffffffffffff1673ffffffffffffffffffffffffffffffffffffffff16815260200190815260200160002054610c54919061276a565b90506001548260000154610c68919061276a565b811015610caa576040517f08c379a0000000000000000000000000000000000000000000000000000000008152600401610ca190612658565b60405180910390fd5b808260020160003373ffffffffffffffffffffffffffffffffffffffff1673ffffffffffffffffffffffffffffffffffffffff168152602001908152602001600020819055508160030160405180604001604052803373ffffffffffffffffffffffffffffffffffffffff16815260200134815250908060018154018082558091505060019003906000526020600020906002020160009091909190915060008201518160000160006101000a81548173ffffffffffffffffffffffffffffffffffffffff021916908373ffffffffffffffffffffffffffffffffffffffff1602179055506020820151816001015550508160020160008360010160009054906101000a900473ffffffffffffffffffffffffffffffffffffffff1673ffffffffffffffffffffffffffffffffffffffff1673ffffffffffffffffffffffffffffffffffffffff16815260200190815260200160002054811115610ed457610e84816001548460020160008660010160009054906101000a900473ffffffffffffffffffffffffffffffffffffffff1673ffffffffffffffffffffffffffffffffffffffff1673ffffffffffffffffffffffffffffffffffffffff16815260200190815260200160002054610e7f919061276a565b611bee565b8260000181905550338260010160006101000a81548173ffffffffffffffffffffffffffffffffffffffff021916908373ffffffffffffffffffffffffffffffffffffffff160217905550610f59565b610f5060015482610ee5919061276a565b8360020160008560010160009054906101000a900473ffffffffffffffffffffffffffffffffffffffff1673ffffffffffffffffffffffffffffffffffffffff1673ffffffffffffffffffffffffffffffffffffffff16815260200190815260200160002054611bee565b82600001819055505b3373ffffffffffffffffffffffffffffffffffffffff16847f0e54eff26401bf69b81b26f60bd85ef47f5d85275c1d268d84f68d6897431c4734604051610fa09190612698565b60405180910390a350505050565b60015481565b60038181548110610fc457600080fd5b906000526020600020016000915090505481565b60008083118015610fea5750600c8311155b611029576040517f08c379a0000000000000000000000000000000000000000000000000000000008152600401611020906125d8565b60405180910390fd5b6002600084815260200190815260200160002060020160008373ffffffffffffffffffffffffffffffffffffffff1673ffffffffffffffffffffffffffffffffffffffff16815260200190815260200160002054905092915050565b60606000821180156110985750600c8211155b6110d7576040517f08c379a00000000000000000000000000000000000000000000000000000000081526004016110ce906125d8565b60405180910390fd5b60026000838152602001908152602001600020600301805480602002602001604051908101604052809291908181526020016000905b8282101561119f57838290600052602060002090600202016040518060400160405290816000820160009054906101000a900473ffffffffffffffffffffffffffffffffffffffff1673ffffffffffffffffffffffffffffffffffffffff1673ffffffffffffffffffffffffffffffffffffffff1681526020016001820154815250508152602001906001019061110d565b505050509050919050565b6060600060038054905067ffffffffffffffff8111156111f3577f4e487b7100000000000000000000000000000000000000000000000000000000600052604160045260246000fd5b60405190808252806020026020018201604052801561122c57816020015b611219611c08565b8152602001906001900390816112115790505b50905060005b6003805490508110156113f65760006003828154811061127b577f4e487b7100000000000000000000000000000000000000000000000000000000600052603260045260246000fd5b906000526020600020015490506040518060c00160405280828152602001600260008481526020019081526020016000206000015481526020016002600084815260200190815260200160002060010160009054906101000a900473ffffffffffffffffffffffffffffffffffffffff1673ffffffffffffffffffffffffffffffffffffffff1681526020016002600084815260200190815260200160002060010160149054906101000a900460ff166003811115611363577f4e487b7100000000000000000000000000000000000000000000000000000000600052602160045260246000fd5b81526020016002600084815260200190815260200160002060040154815260200160026000848152602001908152602001600020600501548152508383815181106113d7577f4e487b7100000000000000000000000000000000000000000000000000000000600052603260045260246000fd5b60200260200101819052505080806113ee90612867565b915050611232565b508091505090565b60008111801561140f5750600c8111155b61144e576040517f08c379a0000000000000000000000000000000000000000000000000000000008152600401611445906125d8565b60405180910390fd5b600060026000838152602001908152602001600020905060038081111561149e577f4e487b7100000000000000000000000000000000000000000000000000000000600052602160045260246000fd5b8160010160149054906101000a900460ff1660038111156114e8577f4e487b7100000000000000000000000000000000000000000000000000000000600052602160045260246000fd5b14806114f75750806005015442115b611536576040517f08c379a000000000000000000000000000000000000000000000000000000000815260040161152d90612538565b60405180910390fd5b60008054906101000a900473ffffffffffffffffffffffffffffffffffffffff1673ffffffffffffffffffffffffffffffffffffffff163373ffffffffffffffffffffffffffffffffffffffff1614806115d1575060008160020160003373ffffffffffffffffffffffffffffffffffffffff1673ffffffffffffffffffffffffffffffffffffffff16815260200190815260200160002054115b611610576040517f08c379a0000000000000000000000000000000000000000000000000000000008152600401611607906124d8565b60405180910390fd5b60008060038081111561164c577f4e487b7100000000000000000000000000000000000000000000000000000000600052602160045260246000fd5b8360010160149054906101000a900460ff166003811115611696577f4e487b7100000000000000000000000000000000000000000000000000000000600052602160045260246000fd5b141561176c5760008360020160003373ffffffffffffffffffffffffffffffffffffffff1673ffffffffffffffffffffffffffffffffffffffff1681526020019081526020016000205411611720576040517f08c379a0000000000000000000000000000000000000000000000000000000008152600401611717906124f8565b60405180910390fd5b3391508260020160003373ffffffffffffffffffffffffffffffffffffffff1673ffffffffffffffffffffffffffffffffffffffff1681526020019081526020016000205490506119b8565b60008054906101000a900473ffffffffffffffffffffffffffffffffffffffff1673ffffffffffffffffffffffffffffffffffffffff163373ffffffffffffffffffffffffffffffffffffffff1614156117ef5760008054906101000a900473ffffffffffffffffffffffffffffffffffffffff169150826000015490506119b7565b8260010160009054906101000a900473ffffffffffffffffffffffffffffffffffffffff1673ffffffffffffffffffffffffffffffffffffffff163373ffffffffffffffffffffffffffffffffffffffff1614156118ea578260010160009054906101000a900473ffffffffffffffffffffffffffffffffffffffff16915082600001548360020160008560010160009054906101000a900473ffffffffffffffffffffffffffffffffffffffff1673ffffffffffffffffffffffffffffffffffffffff1673ffffffffffffffffffffffffffffffffffffffff168152602001908152602001600020546118e391906127c0565b90506119b6565b60008360020160003373ffffffffffffffffffffffffffffffffffffffff1673ffffffffffffffffffffffffffffffffffffffff168152602001908152602001600020541161196e576040517f08c379a0000000000000000000000000000000000000000000000000000000008152600401611965906124f8565b60405180910390fd5b3391508260020160003373ffffffffffffffffffffffffffffffffffffffff1673ffffffffffffffffffffffffffffffffffffffff1681526020019081526020016000205490505b5b5b60008360020160008473ffffffffffffffffffffffffffffffffffffffff1673ffffffffffffffffffffffffffffffffffffffff1681526020019081526020016000208190555060008273ffffffffffffffffffffffffffffffffffffffff1682604051611a2590612409565b60006040518083038185875af1925050503d8060008114611a62576040519150601f19603f3d011682016040523d82523d6000602084013e611a67565b606091505b5050905080611aab576040517f08c379a0000000000000000000000000000000000000000000000000000000008152600401611aa2906125f8565b60405180910390fd5b836005015442118015611b3f575060016003811115611af3577f4e487b7100000000000000000000000000000000000000000000000000000000600052602160045260246000fd5b8460010160149054906101000a900460ff166003811115611b3d577f4e487b7100000000000000000000000000000000000000000000000000000000600052602160045260246000fd5b145b15611b985760028460010160146101000a81548160ff02191690836003811115611b92577f4e487b7100000000000000000000000000000000000000000000000000000000600052602160045260246000fd5b02179055505b8273ffffffffffffffffffffffffffffffffffffffff16857f4d9113a1377d665eaa1f9168a9c9080f2e488cb820b10149de3d6d2e0f2780c784604051611bdf9190612698565b60405180910390a35050505050565b600081831115611bfe5781611c00565b825b905092915050565b6040518060c001604052806000815260200160008152602001600073ffffffffffffffffffffffffffffffffffffffff16815260200160006003811115611c78577f4e487b7100000000000000000000000000000000000000000000000000000000600052602160045260246000fd5b815260200160008152602001600081525090565b600081359050611c9b81612922565b92915050565b600081359050611cb081612939565b92915050565b600060208284031215611cc857600080fd5b6000611cd684828501611ca1565b91505092915050565b60008060408385031215611cf257600080fd5b6000611d0085828601611ca1565b9250506020611d1185828601611c8c565b9150509250929050565b6000611d278383612341565b60c08301905092915050565b6000611d3f83836123bc565b60408301905092915050565b611d5481612806565b82525050565b611d63816127f4565b82525050565b6000611d74826126fc565b611d7e818561272c565b9350611d89836126dc565b8060005b83811015611dba578151611da18882611d1b565b9750611dac83612712565b925050600181019050611d8d565b5085935050505092915050565b6000611dd282612707565b611ddc818561273d565b9350611de7836126ec565b8060005b83811015611e18578151611dff8882611d33565b9750611e0a8361271f565b925050600181019050611deb565b5085935050505092915050565b611e2e81612855565b82525050565b611e3d81612855565b82525050565b6000611e50602483612759565b91507f41756b63696f6e6173207475726920627574692043726561746564206275736560008301527f6e6f6a65000000000000000000000000000000000000000000000000000000006020830152604082019050919050565b6000611eb6601283612759565b91507f41756b63696f6e6173206e657665696b696100000000000000000000000000006000830152602082019050919050565b6000611ef6603d83612759565b91507f54696b20736176696e696e6b617320617262612073746174796d75732070617460008301527f65696b652061736d656e79732067616c692066696e616c697a756f74690000006020830152604082019050919050565b6000611f5c601583612759565b91507f4a756d73206e657261206b6f2061747369696d746900000000000000000000006000830152602082019050919050565b6000611f9c602383612759565b91507f54696573696f67696e69616920706572766564696d6169206e656c6569647a6960008301527f616d6900000000000000000000000000000000000000000000000000000000006020830152604082019050919050565b6000612002602a83612759565b91507f41756b63696f6e617320646172206e657665696b69612061726261206e65726160008301527f2061747361756b746173000000000000000000000000000000000000000000006020830152604082019050919050565b6000612068602083612759565b91507f4d696e696d616c75732073746174796d61732079726120302e303031204554486000830152602082019050919050565b60006120a8601583612759565b91507f41756b63696f6e6173206e65707261736964656a6f00000000000000000000006000830152602082019050919050565b60006120e8603583612759565b91507f41756b63696f6e6173207475726920627574692041637469766520627573656e60008301527f6f6a652c206b6164206a692073746162647974756d00000000000000000000006020830152604082019050919050565b600061214e601183612759565b91507f41756b63696f6e617320626169676573690000000000000000000000000000006000830152602082019050919050565b600061218e601683612759565b91507f4e6574696e6b616d61732061756b63696f6e6f204944000000000000000000006000830152602082019050919050565b60006121ce60008361274e565b9150600082019050919050565b60006121e8601383612759565b91507f506572766564696d6173206e65706176796b6f000000000000000000000000006000830152602082019050919050565b6000612228601583612759565b91507f41756b63696f6e6173206a6175206261696765736900000000000000000000006000830152602082019050919050565b6000612268601983612759565b91507f536176696e696e6b6173206e6567616c692073746174797469000000000000006000830152602082019050919050565b60006122a8601d83612759565b91507f53746174796d6f207061646964696e696d617320706572206d617a61730000006000830152602082019050919050565b60006122e8602383612759565b91507f54696b20736176696e696e6b61732067616c692061746c696b7469207665696b60008301527f736d6100000000000000000000000000000000000000000000000000000000006020830152604082019050919050565b60c08201600082015161235760008501826123eb565b50602082015161236a60208501826123eb565b50604082015161237d6040850182611d5a565b5060608201516123906060850182611e25565b5060808201516123a360808501826123eb565b5060a08201516123b660a08501826123eb565b50505050565b6040820160008201516123d26000850182611d5a565b5060208201516123e560208501826123eb565b50505050565b6123f48161284b565b82525050565b6124038161284b565b82525050565b6000612414826121c1565b9150819050919050565b60006020820190506124336000830184611d4b565b92915050565b600060208201905081810360008301526124538184611d69565b905092915050565b600060208201905081810360008301526124758184611dc7565b905092915050565b60006020820190506124926000830184611e34565b92915050565b600060208201905081810360008301526124b181611e43565b9050919050565b600060208201905081810360008301526124d181611ea9565b9050919050565b600060208201905081810360008301526124f181611ee9565b9050919050565b6000602082019050818103600083015261251181611f4f565b9050919050565b6000602082019050818103600083015261253181611f8f565b9050919050565b6000602082019050818103600083015261255181611ff5565b9050919050565b600060208201905081810360008301526125718161205b565b9050919050565b600060208201905081810360008301526125918161209b565b9050919050565b600060208201905081810360008301526125b1816120db565b9050919050565b600060208201905081810360008301526125d181612141565b9050919050565b600060208201905081810360008301526125f181612181565b9050919050565b60006020820190508181036000830152612611816121db565b9050919050565b600060208201905081810360008301526126318161221b565b9050919050565b600060208201905081810360008301526126518161225b565b9050919050565b600060208201905081810360008301526126718161229b565b9050919050565b60006020820190508181036000830152612691816122db565b9050919050565b60006020820190506126ad60008301846123fa565b92915050565b60006040820190506126c860008301856123fa565b6126d560208301846123fa565b9392505050565b6000819050602082019050919050565b6000819050602082019050919050565b600081519050919050565b600081519050919050565b6000602082019050919050565b6000602082019050919050565b600082825260208201905092915050565b600082825260208201905092915050565b600081905092915050565b600082825260208201905092915050565b60006127758261284b565b91506127808361284b565b9250827fffffffffffffffffffffffffffffffffffffffffffffffffffffffffffffffff038211156127b5576127b46128b0565b5b828201905092915050565b60006127cb8261284b565b91506127d68361284b565b9250828210156127e9576127e86128b0565b5b828203905092915050565b60006127ff8261282b565b9050919050565b60006128118261282b565b9050919050565b60008190506128268261290e565b919050565b600073ffffffffffffffffffffffffffffffffffffffff82169050919050565b6000819050919050565b600061286082612818565b9050919050565b60006128728261284b565b91507fffffffffffffffffffffffffffffffffffffffffffffffffffffffffffffffff8214156128a5576128a46128b0565b5b600182019050919050565b7f4e487b7100000000000000000000000000000000000000000000000000000000600052601160045260246000fd5b7f4e487b7100000000000000000000000000000000000000000000000000000000600052602160045260246000fd5b6004811061291f5761291e6128df565b5b50565b61292b816127f4565b811461293657600080fd5b50565b6129428161284b565b811461294d57600080fd5b5056fea2646970667358221220b9bd333d24a41921b0be3a8a42ee62c19af69aabb7f5f51058a19d3f527547a764736f6c63430008000033",
  "immutableReferences": {},
  "source": "// SPDX-License-Identifier: GPL-3.0\r\n\r\npragma solidity ^0.8.0;\r\n\r\ncontract MultiItemAuction {\r\n    address payable public owner;\r\n    uint public bidIncrement;\r\n\r\n    enum State { Created, Active, Ended, Canceled }\r\n\r\n    struct Bid {\r\n        address bidder;\r\n        uint amount;\r\n    }\r\n\r\n    struct Item {\r\n        uint highestBindingBid;\r\n        address payable highestBidder;\r\n        State auctionState;\r\n        mapping(address => uint) bids;\r\n        Bid[] bidHistory;\r\n        uint startTime;\r\n        uint endTime;\r\n    }\r\n\r\n    mapping(uint => Item) private itemsMap; // Aukcion saugojimas pagal ID\r\n    uint[] public itemIds;\r\n\r\n    // vyki deklaracijos\r\n    event AuctionStarted(uint indexed itemId, uint startTime, uint endTime);\r\n    event AuctionCanceled(uint indexed itemId);\r\n    event BidPlaced(uint indexed itemId, address indexed bidder, uint bidAmount);\r\n    event AuctionFinalized(uint indexed itemId, address indexed recipient, uint value);\r\n\r\n    // Modifikatoriai\r\n    modifier notOwner() {\r\n        require(msg.sender != owner, \"Savininkas negali statyti\");\r\n        _;\r\n    }\r\n\r\n    modifier auctionActive(uint itemId) {\r\n        require(itemsMap[itemId].auctionState == State.Active, \"Aukcionas neveikia\");\r\n        require(block.timestamp >= itemsMap[itemId].startTime, \"Aukcionas neprasidejo\");\r\n        require(block.timestamp <= itemsMap[itemId].endTime, \"Aukcionas baigesi\");\r\n        _;\r\n    }\r\n\r\n    modifier onlyOwner() {\r\n        require(msg.sender == owner, \"Tik savininkas gali atlikti veiksma\");\r\n        _;\r\n    }\r\n\r\n    constructor(uint _bidIncrement) {\r\n        require(_bidIncrement > 0, \"Statymo padidinimas turi buti didesnis nei 0\");\r\n        owner = payable(msg.sender);\r\n        bidIncrement = _bidIncrement;\r\n\r\n        for (uint i = 1; i <= 12; i++) {\r\n            itemIds.push(i);\r\n            initializeItem(i);\r\n        }\r\n    }\r\n\r\n    function initializeItem(uint itemId) internal {\r\n        require(itemId > 0 && itemId <= 12, \"Netinkamas aukciono ID\");\r\n        Item storage item = itemsMap[itemId];\r\n        // Gali bti, kad kontraktas ikvieiamas tik kart konstruktoriaus metu,\r\n        // todl papildom patikrinim, ar jis jau sukurtas, neprireiks.\r\n        // Jei visgi norite, galite pridti require, kad bsenos keisti negalima jei jau sukurta.\r\n        \r\n        item.highestBindingBid = 0;\r\n        item.highestBidder = payable(address(0));\r\n        item.auctionState = State.Created;\r\n        // startTime ir endTime bus nustatyti kai bus kvieiamas startAuction\r\n    }\r\n\r\n    // Funkcija pradti aukcion\r\n    function startAuction(uint itemId) public onlyOwner {\r\n        require(itemId > 0 && itemId <= 12, \"Netinkamas aukciono ID\");\r\n        Item storage item = itemsMap[itemId];\r\n        require(item.auctionState == State.Created, \"Aukcionas turi buti Created busenoje\");\r\n        \r\n        item.auctionState = State.Active;\r\n        item.startTime = block.timestamp;\r\n        item.endTime = block.timestamp + 20 minutes; // Aukciono trukm: 20 minui\r\n        \r\n        emit AuctionStarted(itemId, item.startTime, item.endTime);\r\n    }\r\n\r\n    // Stabdyti aukcion\r\n    function cancelAuction(uint itemId) public onlyOwner {\r\n        require(itemId > 0 && itemId <= 12, \"Netinkamas aukciono ID\");\r\n        Item storage item = itemsMap[itemId];\r\n        require(item.auctionState == State.Active, \"Aukcionas turi buti Active busenoje, kad ji stabdytum\");\r\n        require(block.timestamp < item.endTime, \"Aukcionas jau baigesi\");\r\n\r\n        item.auctionState = State.Canceled;\r\n        emit AuctionCanceled(itemId);\r\n    }\r\n\r\n    // Pateikti statym\r\n    function placeBid(uint itemId) public payable notOwner auctionActive(itemId) {\r\n        require(itemId > 0 && itemId <= 12, \"Netinkamas aukciono ID\");\r\n        Item storage item = itemsMap[itemId];\r\n        require(msg.value >= 0.001 ether, \"Minimalus statymas yra 0.001 ETH\");\r\n\r\n        uint currentBid = item.bids[msg.sender] + msg.value;\r\n        require(currentBid >= item.highestBindingBid + bidIncrement, \"Statymo padidinimas per mazas\");\r\n\r\n        // Registruojame statym\r\n        item.bids[msg.sender] = currentBid;\r\n        item.bidHistory.push(Bid({\r\n            bidder: msg.sender,\r\n            amount: msg.value\r\n        }));\r\n\r\n        if (currentBid > item.bids[item.highestBidder]) {\r\n            item.highestBindingBid = min(currentBid, item.bids[item.highestBidder] + bidIncrement);\r\n            item.highestBidder = payable(msg.sender);\r\n        } else {\r\n            item.highestBindingBid = min(currentBid + bidIncrement, item.bids[item.highestBidder]);\r\n        }\r\n\r\n        emit BidPlaced(itemId, msg.sender, msg.value);\r\n    }\r\n\r\n    // Finalizuoti aukcion\r\n    function finalizeAuction(uint itemId) public {\r\n        require(itemId > 0 && itemId <= 12, \"Netinkamas aukciono ID\");\r\n        Item storage item = itemsMap[itemId];\r\n        require(\r\n            item.auctionState == State.Canceled || block.timestamp > item.endTime,\r\n            \"Aukcionas dar neveikia arba nera atsauktas\"\r\n        );\r\n        require(\r\n            msg.sender == owner || item.bids[msg.sender] > 0,\r\n            \"Tik savininkas arba statymus pateike asmenys gali finalizuoti\"\r\n        );\r\n\r\n        address payable recipient;\r\n        uint value;\r\n\r\n        if (item.auctionState == State.Canceled) {\r\n            // Jei aukcionas atsauktas, bet kuris dalyvis gali isiimti savo statymus\r\n            require(item.bids[msg.sender] > 0, \"Jums nera ko atsiimti\");\r\n            recipient = payable(msg.sender);\r\n            value = item.bids[msg.sender];\r\n        } else {\r\n            // Jei aukcionas baigtas\r\n            if (msg.sender == owner) {\r\n                recipient = owner;\r\n                value = item.highestBindingBid;\r\n            } else if (msg.sender == item.highestBidder) {\r\n                recipient = item.highestBidder;\r\n                value = item.bids[item.highestBidder] - item.highestBindingBid;\r\n            } else {\r\n                // Kiti dalyviai gali isiimti savo statymus\r\n                require(item.bids[msg.sender] > 0, \"Jums nera ko atsiimti\");\r\n                recipient = payable(msg.sender);\r\n                value = item.bids[msg.sender];\r\n            }\r\n        }\r\n\r\n        item.bids[recipient] = 0;\r\n\r\n        (bool success, ) = recipient.call{value: value}(\"\");\r\n        require(success, \"Pervedimas nepavyko\");\r\n\r\n        if (block.timestamp > item.endTime && item.auctionState == State.Active) {\r\n            item.auctionState = State.Ended;\r\n        }\r\n\r\n        emit AuctionFinalized(itemId, recipient, value);\r\n    }\r\n\r\n    // Gauti aukciono aukiausi statym\r\n    function getHighestBid(uint itemId) public view returns (uint) {\r\n        require(itemId > 0 && itemId <= 12, \"Netinkamas aukciono ID\");\r\n        return itemsMap[itemId].highestBindingBid;\r\n    }\r\n\r\n    // Gauti aukciono bsen\r\n    function getAuctionState(uint itemId) public view returns (State) {\r\n        require(itemId > 0 && itemId <= 12, \"Netinkamas aukciono ID\");\r\n        return itemsMap[itemId].auctionState;\r\n    }\r\n\r\n    // Gauti statym pagal aukciono ID ir dalyvio adres\r\n    function getBidAmount(uint itemId, address bidder) public view returns (uint) {\r\n        require(itemId > 0 && itemId <= 12, \"Netinkamas aukciono ID\");\r\n        return itemsMap[itemId].bids[bidder];\r\n    }\r\n\r\n    struct AuctionDetails {\r\n        uint itemId;\r\n        uint highestBid;\r\n        address highestBidder;\r\n        State auctionState;\r\n        uint startTime;\r\n        uint endTime;\r\n    }\r\n\r\n    function getAllAuctions() public view returns (AuctionDetails[] memory) {\r\n        AuctionDetails[] memory auctions = new AuctionDetails[](itemIds.length);\r\n        for(uint i = 0; i < itemIds.length; i++) {\r\n            uint id = itemIds[i];\r\n            auctions[i] = AuctionDetails({\r\n                itemId: id,\r\n                highestBid: itemsMap[id].highestBindingBid,\r\n                highestBidder: itemsMap[id].highestBidder,\r\n                auctionState: itemsMap[id].auctionState,\r\n                startTime: itemsMap[id].startTime,\r\n                endTime: itemsMap[id].endTime\r\n            });\r\n        }\r\n        return auctions;\r\n    }\r\n\r\n    // Gauti aukciono istorij\r\n    function getBidHistory(uint itemId) public view returns (Bid[] memory) {\r\n        require(itemId > 0 && itemId <= 12, \"Netinkamas aukciono ID\");\r\n        return itemsMap[itemId].bidHistory;\r\n    }\r\n\r\n    // Minimalios funkcijos pavyzdys\r\n    function min(uint a, uint b) private pure returns (uint) {\r\n        return a <= b ? a : b;\r\n    }\r\n\r\n    // Atmetame tiesioginius pervedimus\r\n    receive() external payable {\r\n        revert(\"Tiesioginiai pervedimai neleidziami\");\r\n    }\r\n}\r\n",
  "sourcePath": "C:\\2KURSAS\\blockchain\\AukcionoProjektas\\contracts\\aukcionas.sol",
  "compiler": {
    "name": "solc",
    "version": "0.8.0+commit.c7dfd78e.Emscripten.clang"
  },
  "schemaVersion": "3.4.16",
  "updatedAt": "2024-12-12T03:05:01.353Z",
  "networkType": "ethereum",
  "devdoc": {
    "kind": "dev",
    "methods": {},
    "version": 1
  },
  "userdoc": {
    "kind": "user",
    "methods": {},
    "version": 1
  }
}